:020000040000FA
:100000000207280203B8E86480F8E933E833601196
:100010000460F0ED33EC337009E8FCE9FDEAFEEB37
:10002000FF220460DED3EB9FEA9EE99DE8C2E78CE5
:10003000F0C2F795F0400CE8CCF8E9CDF9EACEFA39
:10004000EBCFFB12038385D0F05804700320D5B3A7
:10005000E80470075002B2D50203C292D5EC0460E6
:10006000F7E4CCC0E0C398F8603B94186008400DFA
:10007000D0E0FB02039AE4FBFAC9FC8028E830E4F4
:1000800006E4C9FBE4CAFCE830E305E4C9CACBFCDA
:10009000E854076010F8C3E913F9EA13FAEB13FB0D
:1000A000EC13FCD8F130F52FC3E49CFCEF9BFFEE82
:1000B0009AFEED99FDD0E0FBEF4E4D4C701222DB25
:1000C000030203BFEC2CFCEF33FFEE33FEED33FDF8
:1000D000ED30E7EB02039AEF2BFFEE3AFEED39FD30
:1000E000D0E0FB50130BBB00030203C2ED13FDEE87
:1000F00013FEEF13FFEC13FC02039AEC4D6011E8C2
:10010000497017ED33EC3304600DE4FCFFFEFD2273
:10011000E933E8330470F80203B81203835804602B
:1001200009E4CC248150062850090203C228400368
:100130000203BFC0E0EB4A7044B98006D0E0FB0286
:1001400003AEEF4E701CBD8008EBFFEAFEE9FD80B8
:10015000EBE98DF0A4FEE5F00201E4E9CDF9EAFE59
:10016000EBFFEF89F0A4FCE5F0CE89F0A42EFFE4CC
:1001700035F0CD89F0A42DFEE435F08067EF4E70A8
:1001800005BD80D780C3EF8BF0A4ACF0EE8BF0A45C
:100190002CFCE435F0F8EF8AF0A42CE5F038FCE410
:1001A00033CB8DF0A42CFCE5F03BF8EE8AF0A42CC8
:1001B000FCE5F038F8E433CF89F0A42CFCE5F03806
:1001C000CF3400CE89F0A42FFFE5F03EFEE433C922
:1001D0008DF0A42EFEE5F039CD8AF0A42FFFE5F0D6
:1001E0003EFEE43DFD33D0E0FB50070BBB000F02A9
:1001F00003C2EC2CFCEF33FFEE33FEED33FD0203C4
:100200009A0203C2EC5D046005E85904700302031E
:10021000B8120383580460F6EC4860F2EC7004FDF9
:10022000FEFF22C860DB2481C85009C398600250D9
:10023000060203BF9850CAF582E9294B4A7005AB04
:10024000820203AE75F0007C1A7880C3EF9BEE9AB1
:10025000ED99400DC3EF9BFFEE9AFEED99FDE8424C
:10026000F0DC23ACF0D0E0FFD0E0FED0E0FDAB82CC
:1002700020E7101BEB60BAEC2CFCEF33FFEE33FEF3
:10028000ED33FD02039AE803F830E705C0F075F09E
:1002900000EF2FFFEE33FEED33FD40B830E7C280B4
:1002A000AA74F8CC6480CCC86480C8F5820460432A
:1002B000C3EB9FF5F0EA9E42F0E99D42F0E89C45D1
:1002C000F060305018E5825FFFE582F42B5582FB29
:1002D00050210ABA001D09B90019088016E5825B91
:1002E000FBE582F42F5582FF50090EBE00050DBDBF
:1002F00000010CC3EB9FF5F0EA9E42F0E99D42F04D
:10030000E89C45F06007CC4820E701B3EC2275F08B
:1003100020800E75F010800575F0087D007E007F4E
:10032000003392D530D50312056AEC334010EF3319
:10033000FFEE33FEED33FDEC33FCD5F0ED22E5F0BE
:10034000247EA2D513CC92E7CDCEFF22EDD2E7CD0D
:1003500033EC3392D524814006E4FFFEFDFC22FC01
:10036000E4CFCECDCC24E0501174FF80EDC3CC138C
:10037000CCCD13CDCE13CECF13CF0470F030D5DE5D
:1003800002056AE9D2E7C933E833F892D5EDD2E73E
:10039000CD33EC33FC5002B2D522EC30E7100FBF66
:1003A000000C0EBE00080DBD00040BEB6014A2D5BE
:1003B000EB13FCED92E7FD2274FFFCFDFEFF22E44F
:1003C00080F8A2D574FF13FC7D80E480EFBB010CA4
:1003D000E58229F582E5833AF583E0225006E92596
:1003E00082F8E622BBFE06E92582F8E222E58229B0
:1003F000F582E5833AF583E49322F8BB010DE582AB
:1004000029F582E5833AF583E8F0225006E9258252
:10041000C8F622BBFE05E92582C8F222EF8DF0A4C2
:10042000A8F0CF8CF0A428CE8DF0A42EFE22BB0124
:100430000A89828A83F0E5F0A3F0225006F709A723
:10044000F01922BBFE06F3E5F009F31922E88FF05C
:10045000A4CC8BF0A42CFCE98EF0A42CFC8AF0ED4B
:10046000A42CFCEA8EF0A4CDA8F08BF0A42DCC38FF
:1004700025F0FDE98FF0A42CCD35F0FCEB8EF0A437
:10048000FEA9F0EB8FF0A4CFC5F02ECD39FEE43CF1
:10049000FCEAA42DCE35F0FDE43CFC2275F0087595
:1004A0008200EF2FFFEE33FECD33CDCC33CCC582AF
:1004B00033C5829BED9AEC99E58298400CF582EE6B
:1004C0009BFEED9AFDEC99FC0FD5F0D6E4CEFBE453
:1004D000CDFAE4CCF9A88222B800C1B90059BA001B
:1004E0002DEC8BF084CFCECDFCE5F0CBF97818EF76
:1004F0002FFFEE33FEED33FDEC33FCEB33FB10D777
:1005000003994004EB99FB0FD8E5E4F9FA22781837
:10051000EF2FFFEE33FEED33FDEC33FCC933C91092
:10052000D7059BE99A4007EC9BFCE99AF90FD8E0C4
:10053000E4C9FAE4CCFB2275F010EF2FFFEE33FE96
:10054000ED33FDCC33CCC833C810D7079BEC9AE809
:1005500099400AED9BFDEC9AFCE899F80FD5F0DA8A
:10056000E4CDFBE4CCFAE4C8F922C3E49FFFE49EA7
:10057000FEE49DFDE49CFC22EB9FF5F0EA9E42F038
:10058000E99D42F0E89C45F02274112508F9E4FA4F
:10059000FB8F298E288D278C268B2A8A2B892CE489
:1005A000F52FFFFEFDFCAB29AA28A927A8261202D9
:1005B000A15010AB2AAA2BA92C852F827583007419
:1005C0002D802EE4FBFA79C87842AF29AE28AD27FA
:1005D000AC2612020412034C8E2D8F2EE52E452DD3
:1005E0006014EF2430AB2AAA2BA92C852F827583A7
:1005F000001203FA052FAF29AE28AD27AC26C004A0
:10060000C005C006C007AE2DAF2E7C007D6412046D
:100610001CAC06AD07E4120313A804A905AA06AB97
:1006200007D007D006D005D0041200068F298E28E7
:100630008D278C26E4FBFA792078411202041203FC
:100640004C8E2D8F2EE52E452D6014EF2430AB2AD5
:10065000AA2BA92C852F827583001203FA052FAFD0
:1006600029AE28AD27AC26C004C005C006C007AE21
:100670002DAF2E7C007D0A12041CAC06AD07E412DF
:100680000313A804A905AA06AB07D007D006D00516
:10069000D0041200068F298E288D278C2612034C39
:1006A0008E2D8F2EEF2430AB2AAA2BA92C852F82DA
:1006B0007583001203FA052F852F82758300742E2F
:1006C0001203FA052FAF29AE28AD27AC26C004C00F
:1006D00005C006C007AC2DAD2EE4120313A804A973
:1006E00005AA06AB07D007D006D005D00412000635
:1006F0008F298E288D278C26E4FBFA7920784112E9
:1007000000FB8F298E288D278C2612034C8E2D8F6F
:100710002EEF2430AB2AAA2BA92C852F82758300BB
:100720001203FA052FAF2F22787FE4F6D8FD7581EA
:100730003B02076F0208FAE493A3F8E493A3400393
:10074000F68001F208DFF48029E493A3F85407242B
:100750000CC8C333C4540F4420C8834004F45680EB
:100760000146F6DFE4800B0102040810204080906F
:100770000931E47E019360BCA3FF543F30E5095486
:100780001FFEE493A360010ECF54C025E060A84093
:10079000B8E493A3FAE493A3F8E493A3C8C582C88A
:1007A000CAC583CAF0A3C8C582C8CAC583CADFE95F
:1007B000DEE780BEE47B0CFAF9F8AF3BAE3AAD3928
:1007C000AC381204D88F298E288D278C26E47B0222
:1007D000FAF9F81204D88F298E288D278C26C006A6
:1007E000C007AE36AF37AB07AA06E4F9F8D007D09A
:1007F000061204D88F298E288D278C26C3E49529CC
:10080000FF74019528FEE49527FDE495268F298E37
:10081000288D27F52622AD07AC06E41203138F10AE
:100820008E0F8D0E8C0DE4FBFA7980784412020451
:100830008F108E0F8D0E8C0D7B007A40794E78458F
:100840001200FB8F108E0F8D0E8C0D7B007A40797D
:100850006078441200068F108E0F8D0E8C0D7B6613
:100860007A66795678401202048F108E0F8D0E8CA6
:100870000D22750805AF10AE0FAD0EAC0D12058937
:10088000EF2508F5082411F8762C0508AF0CAE0BFF
:10089000AD0AAC09120589EF2508F5082411F87690
:1008A0002A050874112508F8760D05087411250825
:1008B000F8760A050822C2D5E830E70FB2D5E4C3BE
:1008C0009BFBE49AFAE499F9E498F8EC30E717B264
:1008D000D51208EC1204D8E4C39BFBE49AFAE4991D
:1008E000F9E498F880031204D830D50DE4C39FFFD3
:1008F000E49EFEE49DFDE49CFC22E4F5251209A89B
:100900007B007A00792312098BBF0110E525AF2403
:10091000AE2370051208168003120A021208727BB9
:10092000007A007911AD08120962AF251209E4803E
:10093000CF1211247374612C3030302E302C302EB5
:10094000302A0D0A00010800040D0000000004090F
:100950000000000004380175D720023625800135DB
:1009600000008B268A278928E4FFEFC39D501BAB2C
:1009700026AA27A9288F827583001203CDF599E551
:100980009830E1FB5398FD0F80E022E5E830E51553
:10099000AFBEEF7F00FEADBDEF2DFFE43E8FF01246
:1009A000042E7F01227F002253A87F1209C1120A60
:1009B000071209F3120A0F1209D4120A0B43A88076
:1009C0002243A41075F4FB75D4CF75D5FF75E103F0
:1009D00075E2402275BB1275BA1F75BC4875D10F00
:1009E00075E88022EF700575BB1E800375BB12434E
:1009F000E81022758920538EFC1207B48F8D7588FC
:100A000040228E268F272275B2832275A850227528
:030A100098102219
:00000001FF
