:020000040000FA
:10000000020003120323787FE4F6D8FD75816602AF
:10001000004D0202E2E493A3F8E493A34003F680C8
:1000200001F208DFF48029E493A3F85407240CC8F4
:10003000C333C4540F4420C8834004F4568001469F
:10004000F6DFE4800B01020408102040809001A23A
:10005000E47E019360BCA3FF543F30E509541FFECA
:10006000E493A360010ECF54C025E060A840B8E43B
:1000700093A3FAE493A3F8E493A3C8C582C8CAC5BE
:1000800083CAF0A3C8C582C8CAC583CADFE9DEE750
:1000900080BEAB05AA04E48F62F561F560F55FAE42
:1000A00061AD60AC5F78181202858F628E618D60E1
:1000B0008C5FAE02E5624BF562E5614EF561E5608D
:1000C000F560E55FF55F43A040E4F55EC3E55E944F
:1000D0001F74809480503CE4FFFEFDE55F5440FCBB
:1000E000E4FBFAF97840C3120274700543A08080E3
:1000F0000353A07F53B0EF43B010AF62AE61AD6069
:10010000AC5F78011202858F628E618D608C5F0515
:100110005E80B953B0EF43B01053A0BF22AB05AA25
:1001200004E48F62F561F560F55FAE61AD60AC5FD0
:1001300078101202858F628E618D608C5FAE02E551
:10014000624BF562E5614EF561E560F560E55FF5EE
:100150005F5390FDE4F55EC3E55E9418748094806F
:10016000503CE4FFFEE5605480FDE4FCFBFA79803E
:10017000F8C3120274700543801080035380EF535C
:1001800080F7438008AF62AE61AD60AC5F7801126A
:1001900002858F628E618D608C5F055E80B94390B1
:1001A0000222104D0000002000020004000300B5F0
:1001B000000400002044080000220600090B020091
:1001C0000A10D8000C7001000B0018001E0035004A
:1001D000260030002C0000002DC350002800010034
:1001E0002986A00022C3CA001F0481002400000049
:1001F0002E3FA3002F08C00000220C014CFF046317
:100200000175D72000E5805404654C6050E58054AA
:1002100004F54C700DF522752330752AC3752B50EB
:10022000800C752200752338752A3D752B09E4F57D
:100230005DC3E55D9411748094805021E55D25E0F7
:1002400025E02408F808E6FFE55D25E025E0240A1E
:10025000F8E6FC08E6FD12011D055D80D422EB9F47
:10026000F5F0EA9E42F0E99D42F0EC6480C86480BB
:100270009845F022EB9FF5F0EA9E42F0E99D42F0AE
:10028000E89C45F022E8600FEFC333FFEE33FEED4C
:1002900033FDEC33FCD8F122E4F55DC3E55D940455
:1002A000748094805021E55D25E025E0244DF80818
:1002B000E6FFE55D25E025E0244FF8E6FC08E6FDD5
:1002C000120092055D80D422900000AF82AE83E4DC
:1002D000FCFD7B607AEAF9F8D312025E4003A3804A
:1002E000EA2212031A1202C81203061203101202A3
:1002F0009812020580FB75A41875A50275A6C07535
:10030000A71075E2402253A0BF43B01043A0802243
:100310004390024380084380102253A87F1202F6C4
:0B03200002032753D9BF2275B28322CD
:00000001FF
