:020000040000FA
:100000000214D2E5E8542064207015AFBEEF7F00E3
:10001000FEADBDEF2DFFE43E8FF0120B887F012275
:100020007F00220217B243A14075F8011217FD8F1D
:02003000A2220A
:100033000218D07438254BF9E4FAFBC3740F954BBF
:10004300FD1217068F0BE50B254BF54BFD7C00C30B
:1000530094047480948050037F0022E538642370F5
:1000630049E539644B7043E53A6452703DC3ED94FE
:100073000AEC6480948050037F00227B007A00792D
:100083003C7D0612142D8F0F8E0E8D0D8C0CE4FB10
:100093007A80F9F8120C328F0F8E0E8D0D8C0C8F27
:1000A300538E528D518C50020305E538642360034F
:1000B30002017FE5396450600302017FE53A64572A
:1000C300600302017FC3E54B940B7480948050035B
:1000D3007F00227B007A00793C7D0712142D8F0F5D
:1000E3008E0E8D0D8C0CAB53AA52A951A850120B36
:1000F300A78F578E568D558C54E47B04FAF9F8126A
:100103000C328F578E568D558C54AF0FAE0EAD0DEE
:10011300AC0CE4120A56AB5BAA5AA959A8581209A7
:10012300408F138E128D118C10AF57AE56AD55AC58
:1001330054E4120A56AB13AA12A911A810120940CB
:100143008F138E128D118C10AF4AAE49AD48AC4758
:10015300AB13AA12A911A810120837120A948F0F11
:100163008E0E8D0D8C0C7B007A007987121845E476
:10017300788BF6087601750B0B020737E538B42345
:100183001BE539B44716E53AB44E11C3E54B940663
:100193007480948040030203DD7F0022E5386423EA
:1001A3007031E5396452702BE53A64467025C3E536
:1001B3004B94057480948050037F0022E53C789231
:1001C300B43106E64408F68004E654F7F6750B05E9
:1001D300020737E53864236003020293E539644379
:1001E3006003020293E53A64546003020293C3E599
:1001F3004B940A7480948050037F00227B007A0022
:10020300793C7D0612142D8F0F8E0E8D0D8C0CE410
:10021300FFFEFDFCAB0FAA0EA90DA80CC3120CDF49
:1002230078926006E64404F68004E654FBF6AF0FCA
:10023300AE0EAD0DAC0CE4120A568F138E128D1157
:100243008C10E4FBFA792078411209408F138E1247
:100253008D118C10AB5BAA5AA959A8581209408F6B
:10026300138E128D118C107B007A247974784912C5
:1002730008378F138E128D118C10120A948F0F8EE4
:100283000E8D0D8C0C7B007A00799A1218458072C2
:10029300E53864237072E5396446706CE53A64525C
:1002A3007066E53B64517060C3E54B940A748094B7
:1002B3008050037F00227B007A00793D7D05121474
:1002C3002D8F0F8E0E8D0D8C0CC3E50F94BCF50F87
:1002D300E50E9434F50EE50D9400F50DE50C940050
:1002E300F50CAF0FAE0EAD0DFCE47B04FAF9F8127A
:1002F3000C328F0F8E0E8D0D8C0C8F4F8E4E8D4DBD
:100303008C4C750B0A020737E5386423705CE539BA
:1003130064507056E53A64527050E53B6454704A39
:10032300C3E54B940C7480948050037F00227B00C0
:100333007A00793D7D0712142D8F0F8E0E8D0D8C53
:100343000CE4120A56AB5BAA5AA959A858120940E1
:10035300120A948F0F8E0E8D0D8C0C7B007A007910
:100363008D121845750B0C020737E538642370703E
:10037300E539644D706AE53A644F7064E53B644463
:10038300705EC3E54B94067480948050037F002213
:100393007892E654FCF608E654F8F6E53DB4310CE1
:1003A30018E64401F608E64401F6802EE53DB43232
:1003B300077892E64403800AE53DB4330D7892E66C
:1003C3004401F608E64403F68010E53DB4340B78A7
:1003D30092E64401F608E64407F6750B0602073772
:1003E300E53864237040E5396441703AE53A645472
:1003F3007034E53B6454702EC3E54B9407748094CA
:100403008050037F00221214258F0F8E0E8D0D8CCA
:100413000C7801120D038F0F8E0E8D0D8C0C7891BD
:10042300EFF6F40206E0E538642360030204EDE529
:1004330039644160030204EDE53A64416003020458
:10044300EDE53B644160030204EDC3E54B9407749F
:1004530080948050037F00221214258F0F8E0E8DFF
:100463000D8C0C120CC48F0F8E0E8D0D8C0CE4783A
:1004730094F6E50F5401FFE4FEFDFC7805120D032D
:10048300EF7894F6FBE50F5402FFE4FEFDFC7803DE
:10049300120D03EB4F7894F6FBE50F5404FFE4FED3
:1004A300FDFC7801120D03EB4F7894F6FBE50F5436
:1004B30008FFE4FEFDFC7801120CF0EB4F7894F694
:1004C300FBE50F5410FFE4FEFDFC7803120CF0EB88
:1004D3004F7894F6FBE50F5420FFE4FEFDFC78050E
:1004E300120CF0EB4F78940206E0E5386423703089
:1004F300E5396450702AE53A64537024E53B64415E
:10050300701EC3E54B94077480948050037F0022D0
:100513001214258F0F8E0E8D0D8C0C789702061AF0
:10052300E538642360030205E7E5396441600302AB
:1005330005E7E53A644160030205E7E53B64426091
:10054300030205E7C3E54B94077480948050037F4F
:1005530000221214258F0F8E0E8D0D8C0C120CC4DD
:100563008F0F8E0E8D0D8C0CE47895F6E50F5401EC
:10057300FFE4FEFDFC7805120D03EF7895F6FBE52D
:100583000F5402FFE4FEFDFC7803120D03EB4F78DA
:1005930095F6FBE50F5404FFE4FEFDFC7801120D14
:1005A30003EB4F7895F6FBE50F5408FFE4FEFDFCE3
:1005B3007801120CF0EB4F7895F6FBE50F5410FF22
:1005C300E4FEFDFC7803120CF0EB4F7895F6FBE5A7
:1005D3000F5420FFE4FEFDFC7805120CF0EB4F787E
:1005E300950206E0E53864237032E5396450702CD7
:1005F300E53A64537026E53B64427020C3E54B94AF
:10060300077480948050037F00221214258F0F8E6D
:100613000E8D0D8C0C7898A6070206E1E53864234D
:1006230060030206E6E539644160030206E6E53A43
:10063300644160030206E6E53B644360030206E6A9
:10064300C3E54B94077480948050037F00221214F7
:10065300258F0F8E0E8D0D8C0C120CC48F0F8E0EEA
:100663008D0D8C0CE47896F6E50F5401FFE4FEFD46
:10067300FC7805120D03EF7896F6FBE50F5402FFA5
:10068300E4FEFDFC7803120D03EB4F7896F6FBE5D1
:100693000F5404FFE4FEFDFC7801120D03EB4F78C9
:1006A30096F6FBE50F5408FFE4FEFDFC7801120CFF
:1006B300F0EB4F7896F6FBE50F5410FFE4FEFDFCDC
:1006C3007803120CF0EB4F7896F6FBE50F5420FFFE
:1006D300E4FEFDFC7805120CF0EB4F7896F6750BF3
:1006E300078051E53864237048E53964507042E56A
:1006F3003A6453703CE53B64437036C3E54B94075F
:100703007480948050037F00221214258F0F8E0E65
:100713008D0D8C0C7899A607750B07AF4FAE4EADB8
:100723004DAC4C120D1612191FAF0B1219007F019D
:1007330022750B01AF0B1219007F0022020B00E898
:100743006480F8E933E83360110460F0ED33EC338F
:100753007009E8FCE9FDEAFEEBFF220460DED3EB5F
:100763009FEA9EE99DE8C2E78CF0C2F795F0400C42
:10077300E8CCF8E9CDF9EACEFAEBCFFB120ACB8548
:10078300D0F05804700320D5B3E80470075002B2C8
:10079300D5020B0A92D5EC0460F7E4CCC0E0C39811
:1007A300F8603B94186008400DD0E0FB020AE2E4D5
:1007B300FBFAC9FC8028E830E406E4C9FBE4CAFC80
:1007C300E830E305E4C9CACBFCE854076010F8C37A
:1007D300E913F9EA13FAEB13FBEC13FCD8F130F548
:1007E3002FC3E49CFCEF9BFFEE9AFEED99FDD0E056
:1007F300FBEF4E4D4C701222DB03020B07EC2CFC7B
:10080300EF33FFEE33FEED33FDED30E7EB020AE2AB
:10081300EF2BFFEE3AFEED39FDD0E0FB50130BBB9F
:100823000003020B0AED13FDEE13FEEF13FFEC13AF
:10083300FC020AE2EC4D6011E8497017ED33EC332A
:1008430004600DE4FCFFFEFD22E933E8330470F895
:10085300020B00120ACB58046009E4CC2481500631
:10086300285009020B0A284003020B07C0E0EB4A99
:100873007044B98006D0E0FB020AF6EF4E701CBD4F
:100883008008EBFFEAFEE9FD80EBE98DF0A4FEE5CD
:10089300F0020920E9CDF9EAFEEBFFEF89F0A4FCB1
:1008A300E5F0CE89F0A42EFFE435F0CD89F0A42D38
:1008B300FEE435F08067EF4E7005BD80D780C3EF4F
:1008C3008BF0A4ACF0EE8BF0A42CFCE435F0F8EF45
:1008D3008AF0A42CE5F038FCE433CB8DF0A42CFC97
:1008E300E5F03BF8EE8AF0A42CFCE5F038F8E433AD
:1008F300CF89F0A42CFCE5F038CF3400CE89F0A4E6
:100903002FFFE5F03EFEE433C98DF0A42EFEE5F0A3
:1009130039CD8AF0A42FFFE5F03EFEE43DFD33D050
:10092300E0FB50070BBB000F020B0AEC2CFCEF3370
:10093300FFEE33FEED33FD020AE2020B0AEC5D0427
:100943006005E859047003020B00120ACB580460D7
:10095300F6EC4860F2EC7004FDFEFF22C860DB2475
:1009630081C85009C39860025006020B079850CA09
:10097300F582E9294B4A7005AB82020AF675F0004D
:100983007C1A7880C3EF9BEE9AED99400DC3EF9BE1
:10099300FFEE9AFEED99FDE842F0DC23ACF0D0E0E7
:1009A300FFD0E0FED0E0FDAB8220E7101BEB60BA86
:1009B300EC2CFCEF33FFEE33FEED33FD020AE2E8ED
:1009C30003F830E705C0F075F000EF2FFFEE33FEBC
:1009D300ED33FD40B830E7C280AA74F8CC6480CC14
:1009E300C86480C8F58204604FC3EB9FF5F0EA9EAC
:1009F30042F0E99D42F0E89C45F0603C501DE582E1
:100A03005FFFE582D313CB5BCBF42B5582FB5028DE
:100A13000ABA002409B9002008801DE5825BFBE5C2
:100A230082D313CF5FCFF4C3132F5582FF50090E28
:100A3300BE00050DBD00010CC3EB9FF5F0EA9E421D
:100A4300F0E99D42F0E89C45F06007CC4820E701BF
:100A5300B3EC2275F020800E75F010800575F00858
:100A63007D007E007F003392D530D503120CD1EC8C
:100A7300334010EF33FFEE33FEED33FDEC33FCD5A3
:100A8300F0ED22E5F0247EA2D513CC92E7CDCEFF84
:100A930022EDD2E7CD33EC3392D524814006E4FF37
:100AA300FEFDFC22FCE4CFCECDCC24E0501174FF3C
:100AB30080EDC3CC13CCCD13CDCE13CECF13CF0447
:100AC30070F030D5DE020CD1E9D2E7C933E833F850
:100AD30092D5EDD2E7CD33EC33FC5002B2D522EC04
:100AE30030E7100FBF000C0EBE00080DBD00040B55
:100AF300EB6014A2D5EB13FCED92E7FD2274FFFC2F
:100B0300FDFEFF22E480F8A2D574FF13FC7D80E490
:100B130080EFBB010CE58229F582E5833AF583E09A
:100B2300225006E92582F8E622BBFE06E92582F873
:100B3300E222E58229F582E5833AF583E49322BB39
:100B4300010689828A83F0225002F722BBFE01F359
:100B530022F8BB010DE58229F582E5833AF583E8A6
:100B6300F0225006E92582C8F622BBFE05E925825C
:100B7300C8F222EF8DF0A4A8F0CF8CF0A428CE8D7C
:100B8300F0A42EFE22BB010A89828A83F0E5F0A33A
:100B9300F0225006F709A7F01922BBFE06F3E5F091
:100BA30009F31922E88FF0A4CC8BF0A42CFCE98E76
:100BB300F0A42CFC8AF0EDA42CFCEA8EF0A4CDA8C2
:100BC300F08BF0A42DCC3825F0FDE98FF0A42CCDCB
:100BD30035F0FCEB8EF0A4FEA9F0EB8FF0A4CFC5AB
:100BE300F02ECD39FEE43CFCEAA42DCE35F0FDE435
:100BF3003CFC2275F008758200EF2FFFEE33FECD2B
:100C030033CDCC33CCC58233C5829BED9AEC99E5C9
:100C13008298400CF582EE9BFEED9AFDEC99FC0F59
:100C2300D5F0D6E4CEFBE4CDFAE4CCF9A88222B821
:100C330000C1B90059BA002DEC8BF084CFCECDFCA6
:100C4300E5F0CBF97818EF2FFFEE33FEED33FDEC33
:100C530033FCEB33FB10D703994004EB99FB0FD81C
:100C6300E5E4F9FA227818EF2FFFEE33FEED33FDBA
:100C7300EC33FCC933C910D7059BE99A4007EC9BB9
:100C8300FCE99AF90FD8E0E4C9FAE4CCFB2275F049
:100C930010EF2FFFEE33FEED33FDCC33CCC833C85A
:100CA30010D7079BEC9AE899400AED9BFDEC9AFC60
:100CB300E899F80FD5F0DAE4CDFBE4CCFAE4C8F90F
:100CC30022CFF4CFCEF4CECDF4CDCCF4CC22C3E4FA
:100CD3009FFFE49EFEE49DFDE49CFC22EB9FF5F068
:100CE300EA9E42F0E99D42F0E89C45F022E8600F5D
:100CF300ECC313FCED13FDEE13FEEF13FFD8F1224B
:100D0300E8600FEFC333FFEE33FEED33FDEC33FC4E
:100D1300D8F1228F178E168D158C14E4F51BF51A56
:100D2300F519F518AF57AE56AD55AC547801120C02
:100D3300F08F1B8E1A8D198C18C3E517951BF51BA5
:100D4300E516951AF51AE5159519F519E51495188B
:100D5300F518E475334875320DF531F530AF1BAE38
:100D63001AAD19AC1812132C8F1F8E1E8D1D8C1CDF
:100D7300AB1FAA1EA91DA81CAF1BAE1AAD19AC1838
:100D8300120C32E4120A568F278E268D258C24AB43
:100D93001FAA1EA91DA81CE47F487E0DFDFC120C92
:100DA30032E4120A568F2B8E2A8D298C28AB2BAA5C
:100DB3002AA929A828E4FFFE7D807C471209408FD9
:100DC300238E228D218C20E4FBFA79807847120848
:100DD300378F238E228D218C20AB27AA26A925A805
:100DE300241208378F238E228D218C20120A948F90
:100DF3001B8E1A8D198C18E4FFFEFDE51878181266
:100E03000CF07877A607E4FFFEE519FDE4FC781003
:100E1300120CF07878A607E4FFE51AFEE4FDFC78EF
:100E230008120CF07879A60708A61BAF57AE56AD8B
:100E330055AC547801120CF08F1B8E1A8D198C1837
:100E4300E517251BF51BE516351AF51AE5153519B2
:100E5300F519E5143518F518E475334875320DF5B1
:100E630031F530AF1BAE1AAD19AC1812132C8F1F0E
:100E73008E1E8D1D8C1CAB1FAA1EA91DA81CAF1B8B
:100E8300AE1AAD19AC18120C32E4120A568F278E23
:100E9300268D258C24AB1FAA1EA91DA81CE47F4800
:100EA3007E0DFDFC120C32E4120A568F2B8E2A8D16
:100EB300298C28AB2BAA2AA929A828E4FFFE7D8028
:100EC3007C471209408F238E228D218C20E4FBFA6C
:100ED300798078471208378F238E228D218C20AB9F
:100EE30027AA26A925A8241208378F238E228D210D
:100EF3008C20120A948F1B8E1A8D198C18E4FFFE16
:100F0300FDE5187818120CF0787BA607E4FFFEE5E0
:100F130019FDE4FC7810120CF0787CA607E4FFE5D9
:100F23001AFEE4FDFC7808120CF0787DA60708A6EB
:100F33001BAF57AE56AD55AC547801120CF08F1B56
:100F43008E1A8D198C18AF17AE16AD15AC14E412AA
:100F53000A56E4FBFA79207840120746C004C0051C
:100F6300C006C007AF1BAE1AAD19AC18E4120A567F
:100F7300A804A905AA06AB07D007D006D005D0045C
:100F83001207421212FC8F1F8E1E8D1D8C1CAB1F6D
:100F9300AA1EA91DA81CAF1BAE1AAD19AC18120CC2
:100FA30032E4120A568F278E268D258C24AB1FAA76
:100FB3001EA91DA81CE47FD07E84FDFC120C32E424
:100FC300120A568F2B8E2A8D298C28AB2BAA2AA97D
:100FD30029A828E4FFFE7D807C471209408F238ED9
:100FE300228D218C20E4FBFA798078471208378F11
:100FF300238E228D218C20AB27AA26A925A8241273
:1010030008378F238E228D218C20120A948F1B8EFA
:101013001A8D198C18E4FFFEFDE5187818120CF0F0
:10102300787FA607E4FFFEE519FDE4FC7810120CB7
:10103300F07880A607E4FFE51AFEE4FDFC780812C9
:101043000CF07881A60708A61BAF57AE56AD55AC7A
:10105300547801120CF08F1B8E1A8D198C18AF1750
:10106300AE16AD15AC14E4120A56E4FBFA792078F7
:1010730040120746C004C005C006C007AF1BAE1A26
:10108300AD19AC18E4120A56D003D002D001D00037
:101093001207461212FC8F1F8E1E8D1D8C1CAB1F58
:1010A300AA1EA91DA81CAF1BAE1AAD19AC18120CB1
:1010B30032E4120A568F278E268D258C24AB1FAA65
:1010C3001EA91DA81CE47FD07E84FDFC120C32E413
:1010D300120A568F2B8E2A8D298C28AB2BAA2AA96C
:1010E30029A828E4FFFE7D807C471209408F238EC8
:1010F300228D218C20E4FBFA798078471208378F00
:10110300238E228D218C20AB27AA26A925A8241261
:1011130008378F238E228D218C20120A948F1B8EE9
:101123001A8D198C18E4FFFEFDE5187818120CF0DF
:101133007883A607E4FFFEE519FDE4FC7810120CA2
:10114300F07884A607E4FFE51AFEE4FDFC780812B4
:101153000CF07885A60708A61B22749F255DF9E489
:10116300FAFB8F0E8E0D8D0C8C0B8B0F8A10891151
:10117300E4F514FFFEFDFCAB0EAA0DA90CA80B129F
:1011830009DD5010AB0FAA10A911851482758300D5
:10119300742D802EE4FBFA79C87842AF0EAE0DAD04
:1011A3000CAC0B120940120A948E128F13E51345EF
:1011B300126014EF2430AB0FAA10A91185148275A5
:1011C3008300120B540514AF0EAE0DAD0CAC0BC067
:1011D30004C005C006C007AE12AF137C007D6412C5
:1011E3000B76AC06AD07E4120A5BA804A905AA06B0
:1011F300AB07D007D006D005D0041207428F0E8E5E
:101203000D8D0C8C0BE4FBFA792078411209401206
:101213000A948E128F13E51345126014EF2430AB3A
:101223000FAA10A911851482758300120B5405149B
:10123300AF0EAE0DAD0CAC0BC004C005C006C007AD
:10124300AE12AF137C007D0A120B76AC06AD07E439
:10125300120A5BA804A905AA06AB07D007D006D0DB
:1012630005D0041207428F0E8E0D8D0C8C0B120AC3
:10127300948E128F13EF2430AB0FAA10A91185148B
:1012830082758300120B54051485148275830074D0
:101293002E120B540514AF0EAE0DAD0CAC0BC004E7
:1012A300C005C006C007AC12AD13E4120A5BA80464
:1012B300A905AA06AB07D007D006D005D0041207AC
:1012C300428F0E8E0D8D0C8C0BE4FBFA7920784146
:1012D3001208378F0E8E0D8D0C8C0B120A948E1202
:1012E3008F13EF2430AB0FAA10A9118514827583D5
:1012F30000120B540514AF14228F278E268D258CD4
:1013030024E4FFFE7D207C41AB27AA26A925A8243F
:10131300120837120A948F1B8E1A8D198C18E475D4
:1013230033D0753284F531F5308F2F8E2E8D2D8C81
:101333002CE4753701F536F535F534AF33AE32AD00
:1013430031AC30AB2FAA2EA92DA82CC3120CDF7001
:1013530003021412E52F5401FFE4FEFDFCFBFAF92E
:10136300F8C3120CDF705BE5335401FFE4FEFDFCB0
:10137300F8C3120CDF704BAF2FAE2EAD2DAC2C7B10
:1013830002F8120C328F2F8E2E8D2D8C2CAF33AE94
:1013930032AD31AC30E47B02FAF9F8120C328F3300
:1013A3008E328D318C30AF37AE36AD35AC34E47B15
:1013B30002FAF9F8120BA78F378E368D358C34026B
:1013C300133EAF33AE32AD31AC30AB2FAA2EA92DC5
:1013D300A82CD3120CDF401BE52F9533F52FE52EF8
:1013E3009532F52EE52D9531F52DE52C9530F52C1F
:1013F30002133EC3E533952FF533E532952EF532CF
:10140300E531952DF531E530952CF53002133EAFDE
:101413002FAE2EAD2DAC2CAB37AA36A935A834028E
:101423000BA77B007A00793D7D028B148A15891600
:101433008D17E4F51CF51BF51AF519752401F52331
:10144300F522F521F518E518C395175079C3E5176B
:101453009518FFE49400CF24FFCF34FFAB14AA15F3
:10146300A9168F82F583120B1524D0FFE434FFFEF7
:101473003395E08F208E1FF51EF51DFDAC1DAB24AB
:10148300AA23A922A821120BA78F208E1F8D1E8CA1
:101493001DE51C2520F51CE51B351FF51BE51A353D
:1014A3001EF51AE519351DF519AF24AE23AD22AC8F
:1014B30021E47B0AFAF9F8120BA78F248E238D22DD
:1014C3008C2105188080AF1CAE1BAD1AAC192212FB
:1014D30019B8787FE4F6D8FD7581B002151C0217A0
:1014E3005EE493A3F8E493A34003F68001F208DFDC
:1014F300F48029E493A3F85407240CC8C333C454D9
:101503000F4420C8834004F456800146F6DFE4808C
:101513000B0102040810204080901561E47E0193C2
:1015230060BCA3FF543F30E509541FFEE493A3605E
:10153300010ECF54C025E060A840B8E493A3FAE4B9
:1015430093A3F8E493A3C8C582C8CAC583CAF0A30A
:10155300C8C582C8CAC583CADFE9DEE780BE202AC0
:1015630075EB900000000000000000000000000088
:101573000000000000000000000000000000000068
:101583000000000000000000000000014B000447C1
:10159300499A33CD04583BE74DB40450000000147E
:1015A3000454000000FA044C0000445C046B000087
:1015B3000000046700000000017400017301046F60
:1015C3000175D72002652580016300129F2473747F
:1015D300612C3030302E302C302E302A0D0A000191
:1015E3005D00015C0001640100E47B0CFAF9F8AFD3
:1015F30072AE71AD70AC6F120C328F0E8E0D8D0CFE
:101603008C0BE47B02FAF9F8120C328F0E8E0D8DDF
:101613000C8C0BC006C007AE65AF66AB07AA06E429
:10162300F9F8D007D006120C328F0E8E0D8D0C8C6C
:101633000BC3E4950EF50E7401950DF50DE4950CB1
:10164300F50CE4950BF50BE50EFF22AD07AC06E4B4
:10165300120A5B8F6E8E6D8D6C8C6BE4FBFA798056
:1016630078441209408F6E8E6D8D6C8C6B7B007A83
:1016730040794E78451208378F6E8E6D8D6C8C6B6A
:101683007B007A40796078441207428F6E8E6D8DAD
:101693006C8C6B7B667A66795678401209408F6E44
:1016A3008E6D8D6C8C6B22AD07AC06E4120A5B8FDA
:1016B3006A8E698D688C677B337A337953784012ED
:1016C30008378F6A8E698D688C67E4FBFA798078B6
:1016D300451209408F6A8E698D688C677BAA7A31BF
:1016E300790778421208378F6A8E698D688C677B19
:1016F300907AB1798778411207468F6A8E698D682F
:101703008C67228B148A158916E4FF856317E563BA
:10171300700122EDD395174002AD17E4FFEFC39D8F
:101723005016745E2FF8E6AB14AA15A9168F8275AE
:101733008300120B540F80E5C3E5639DF517F56332
:10174300E4FFEFC395175010ED2F245EF8E6FE7407
:101753005E2FF8A6060F80EAAF0522E4F50A1219F8
:101763003B7B007A007908120003EF3395E0FEEF2C
:1017730064014E7016E50AAF09AE08700812164EE2
:10178300750A0180061216AAE4F50AE5646401707D
:101793000612188C1219A8120036EF64017009E5BD
:1017A300736401700312199FAF0A12196D80B2C0DE
:1017B300E0C0D075D000C000E598540164017014F6
:1017C3005398FEE56364057002F563745E2563F860
:1017D300A6990563E5985402640270175398FDE5D2
:1017E3005CB55D05756401800A749F255CF8E6F5B8
:1017F30099055CD000D0D0D0E032E47B02FAF9F84E
:10180300AF72AE71AD70AC6F120C328F0E8E0D8D48
:101813000C8C0B7BA07A2579267800120C328F0E64
:101823008E0D8D0C8C0BE50E24FFF50EE50D34FFAC
:10183300F50DE50C34FFF50CE50B34FFF50BE50E68
:10184300FF228F178E168D158C14E4FFFEFDE51411
:101853007818120CF0EF120B42E4FFFEE515FDE4DD
:10186300FC7810120CF0900001EF120B54E4FFE52A
:1018730016FEE4FDFC7808120CF0900002EF120B48
:1018830054900003E517020B54755D05AF6EAE6D02
:10189300AD6CAC6B12115DEF255DF55D249FF876A1
:1018A3002C055DAF6AAE69AD68AC6712115DEF25BB
:1018B3005DF55D249FF8762A055D749F255DF876B6
:1018C3000D055D749F255DF8760A055D22C0E0C0B5
:1018D300D075D000C000E5F830E01853F87FE57408
:1018E300642A7005757301800D74752574F8E6F527
:1018F300A3057453F88FD000D0D0D0E032C3E54BAA
:101903009FF54BE4FEEEC3954B5010EE2F2438F8B1
:10191300E6FD74382EF8A6050E80EA22E4789EF6DA
:10192300FFEFC3942974809480500C74752FF8E6EC
:10193300789E26F60F80EA2253A87F1219571219B0
:10194300BC1219901219C01200261219801219B173
:1019530043A8802243A41043A60D75F4FB75D4CF8E
:1019630075D5FF75E10375E24022EF3395E04F70C3
:101973000575BB1E800375BB1243E8102275BB12AD
:1019830075BA1F75BC4875D10F75E880227589201B
:10199300538EFC1215EC8F8D75884022E4F574F597
:1019A3007343F88022E4F55CF5644398022275B82A
:1019B3001075A8502253D9BF2275B283227598108F
:0119C3002201
:00000001FF
